:020000040800F2
:10000000005000202D050008730500087505000844
:1000100077050008790500087B050008000000004E
:100020000000000000000000000000007D05000846
:100030007F05000800000000810500081904000881
:1000400087050008890500088B0500088D05000854
:100050008F05000891050008930500089505000824
:1000600097050008990500089B0500089D050008F4
:100070009F050008A1050008A3050008A5050008C4
:10008000A7050008A9050008AB050008AD05000894
:10009000AF050008B1050008B30500085D040008BD
:1000A000B7050008B9050008BB050008BD05000834
:1000B000DD0300080D040008C3050008C50500089D
:1000C000C7050008C9050008CB050008CD050008D4
:1000D000CF050008D1050008D3050008D5050008A4
:1000E00089040008D9050008DB05000810B5054C97
:1000F000237833B9044B13B10448AFF300800123D4
:10010000237010BD6800002000000000900B000864
:10011000084B10B51BB108490848AFF300800848E8
:10012000036803B910BD074B002BFBD0BDE810409E
:10013000184700BF000000006C000020900B000872
:100140006800002000000000154B002B08BF134B77
:100150009D46A3F5803A00218B460F461348144A6A
:10016000121A00F0FBFC0F4B002B00D098470E4BEF
:10017000002B00D098470020002104000D000D48FE
:10018000002802D00C48AFF3008000F0C1FC200032
:10019000290000F0BDF900F0A7FC00BF0000080036
:1001A0000050002000000000000000006800002057
:1001B000CC00002000000000000000002DE9F84FF6
:1001C00001214FF0805000F095F9754A136843F40F
:1001D0008073136072B6734B73497448072200240E
:1001E000F025596080F8235001219C6040201A605E
:1001F00000F064F90121042000F06EF901210820CB
:1002000000F06AF90121102000F066F9012108468A
:1002100000F062F901214FF4006000F05DF9012166
:10022000084600F067F90121022000F063F901217E
:10023000042000F05FF901214FF4802000F05AF90A
:1002400001214FF4001000F055F901214FF4007026
:1002500000F042F90121084600F030F940F6FF7144
:100260005348544B4268DFF860C142F0007242606C
:100270001A8BDFF858A192B242F064021A83188CEC
:10028000012280B240F0010018841A8585209985EA
:100290004FF4404118809A81A3F844109C861C8733
:1002A0009A82DCF80030DFF8289123F47C6323F095
:1002B0000F0343F44D73CCF80030DAF80030DFF868
:1002C00014E123F0FF0343F09103CAF80030D9F89A
:1002D0000030DFF8048143F0417343F44033C9F840
:1002E0000030BEF800304FF6FF7743F0084343F488
:1002F0000803CEF80030D8F8003040F2011B23F498
:10030000700343F40003C8F80030DCF804384FF001
:10031000810823F07F6343F00163CCF80438D9F8F7
:100320000064254B4FF0804C3343C9F80034DEF8AD
:10033000103443F0C043CEF810344FF47A7E4FF4BB
:10034000E153ACF82440ACF82830ACF82CE0BCF811
:100350000C309BB21343ACF80C30184BACF8008057
:100360001D85A3F82CE018809A81A3F8441040F66C
:1003700003711348134D9C861C879A824FF080525C
:100380004FF0005304858785A0F800800181A0F814
:1003900018B084842A602B6062B6BDE8F88F00BF75
:1003A0000070004010E000E03F19010000ED00E0A7
:1003B00000000140002C0140C0003020000400403B
:1003C0000008004000E100E000080140040801408E
:1003D00010080140000C0140040C014008B5002247
:1003E0004FF080431A8200F0A7F9064B1B7803B93F
:1003F00008BD054B186800F023FBBDE8084000F07D
:10040000B9B900BF9800002084000020014B0022F1
:100410001A8270470004004030B40B490B4D0B6842
:100420000B4C01330B600A680A48A5FB0232C2F389
:10043000871222700B68084AA0FB0313C3F38733AB
:10044000137030BC704700BF8C000020D34D621089
:100450008800002073B2E74589000020094A5369EB
:10046000802B04D005D8202B01D0402B08D153611C
:100470007047B3F5807FFAD0B3F5007FF7D07047AF
:10048000704700BF000401400B4A5369B3F5805F19
:1004900009D00AD9B3F5804F05D0B3F5004F02D08B
:1004A000B3F5005F00D153617047B3F5806FFAD0A8
:1004B000B3F5006FF7D070470004014029B9054A31
:1004C000536923EA000050617047024B5A69104398
:1004D000586170470010024029B9054A936923EA20
:1004E000000090617047024B9A6910439861704711
:1004F0000010024029B9054AD36923EA0000D061FF
:100500007047024BDA691043D8617047001002400F
:1005100008B5FFF753FE00F019F900231A461946F3
:10052000184600F01DF900F0DFF8FCE70649074A1D
:10053000074B9A42BEBF51F8040B42F8040BF8E790
:1005400004488047044800479C0B00080000002036
:1005500068000020E5050008490100081F49204AFD
:10056000002301E041F8043B9142FBD3FFF7D0FFA9
:10057000FEE7FEE7FEE7FEE7FEE7FEE7FEE7FEE753
:10058000FEE7FEE7FEE7FEE7FEE7FEE7FEE7FEE743
:10059000FEE7FEE7FEE7FEE7FEE7FEE7FEE7FEE733
:1005A000FEE7FEE7FEE7FEE7FEE7FEE7FEE7FEE723
:1005B000FEE7FEE7FEE7FEE7FEE7FEE7FEE7FEE713
:1005C000FEE7FEE7FEE7FEE7FEE7FEE7FEE7FEE703
:1005D000FEE7FEE7FEE7FEE7FEE7FEE76800002035
:1005E000CC00002030B43C4B3C49186882B040F04D
:1005F000010018605D6800202940596019684FF4B7
:100600001F0421F0847121F48031196019681A46A1
:1006100021F480211960596821F4FE0159609C6021
:1006200000900190196841F48031196003E0009B4B
:10063000B3F5A06F09D0136803F400330193009B56
:1006400001330093019B002BF1D0234B1B6813F463
:10065000003318BF01230193019B012B06D0204BCF
:100660004FF000629A6002B030BC70471D4A1A4BCE
:100670001068194640F010001060106820F0030068
:100680001060106840F0020010605A685A605A68A2
:100690005A605A6842F480625A605A6822F47C12A6
:1006A0005A605A6842F4E8125A601A6842F080723E
:1006B0001A600B68084A9B01FBD51146536823F06A
:1006C00003035360536843F0020353604B6803F025
:1006D0000C03082BFAD1C2E7001002400000FFF81B
:1006E00000ED00E000200240104B1B6813F03003C7
:1006F00006D0102B0DD0202B13D0302B0DD07047EF
:100700000B490C4A01234FF400300860184613705F
:100710007047084B022018707047064B0420187071
:100720007047044B03201870704700BF080C01404D
:100730001008014090000020024A034B12681A6022
:10074000704700BF2408004094000020034B0021A4
:100750004FF07E5259601A60704700BF9C00002025
:1007600010B4034C2070E2706170A37010BC70472D
:1007700098000020704700BF81F0004102E000BFF8
:1007800083F0004330B54FEA41044FEA430594EA51
:10079000050F08BF90EA020F1FBF54EA000C55EA8C
:1007A000020C7FEA645C7FEA655C00F0E2804FEA5D
:1007B0005454D4EB5555B8BF6D420CDD2C4480EA3F
:1007C000020281EA030382EA000083EA010180EA6F
:1007D000020281EA0303362D88BF30BD11F0004FBD
:1007E0004FEA01314FF4801C4CEA113102D04042F3
:1007F00061EB410113F0004F4FEA03334CEA13332E
:1008000002D0524263EB430394EA050F00F0A78045
:10081000A4F10104D5F1200E0DDB02FA0EFC22FA40
:1008200005F2801841F1000103FA0EF2801843FA34
:1008300005F359410EE0A5F120050EF1200E012A25
:1008400003FA0EFC28BF4CF0020C43FA05F3C01863
:1008500051EBE37101F0004507D54FF0000EDCF1DC
:10086000000C7EEB00006EEB0101B1F5801F1BD385
:10087000B1F5001F0CD349085FEA30004FEA3C0C89
:1008800004F101044FEA445212F5800F80F09A807F
:10089000BCF1004F08BF5FEA500C50F1000041EB83
:1008A000045141EA050130BD5FEA4C0C404141EB87
:1008B000010111F4801FA4F10104E9D191F0000FAE
:1008C00004BF01460020B1FA81F308BF2033A3F131
:1008D0000B03B3F120020CDA0C3208DD02F1140C28
:1008E000C2F10C0201FA0CF021FA02F10CE002F163
:1008F0001402D8BFC2F1200C01FA02F120FA0CFC5C
:10090000DCBF41EA0C019040E41AA2BF01EB0451A4
:10091000294330BD6FEA04041F3C1CDA0C340EDCA2
:1009200004F11404C4F1200220FA04F001FA02F3E5
:1009300040EA030021FA04F345EA030130BDC4F1A3
:100940000C04C4F1200220FA02F001FA04F340EA98
:100950000300294630BD21FA04F0294630BD94F049
:10096000000F83F4801306BF81F480110134013D30
:100970004EE77FEA645C18BF7FEA655C29D094EAA1
:10098000050F08BF90EA020F05D054EA000C04BF1F
:100990001946104630BD91EA030F1EBF002100200A
:1009A00030BD5FEA545C05D14000494128BF41F0A9
:1009B000004130BD14F580043CBF01F5801130BD0D
:1009C00001F0004545F0FE4141F470014FF0000098
:1009D00030BD7FEA645C1ABF194610467FEA655C49
:1009E0001CBF0B46024650EA013406BF52EA0335EB
:1009F00091EA030F41F4002130BD00BF90F0000FD9
:100A000004BF0021704730B54FF4806404F1320414
:100A10004FF000054FF0000150E700BF90F0000FCD
:100A200004BF0021704730B54FF4806404F13204F4
:100A300010F0004548BF40424FF000013EE700BFC4
:100A400042004FEAE2014FEA31014FEA02701FBF54
:100A500012F07F4393F07F4F81F06051704792F026
:100A6000000F14BF93F07F4F704730B54FF46074A0
:100A700001F0004521F0004120E700BF50EA0102EB
:100A800008BF704730B54FF000050AE050EA010298
:100A900008BF704730B511F0004502D5404261EB08
:100AA00041014FF4806404F132045FEA915C3FF449
:100AB000DCAE4FF003025FEADC0C18BF03325FEAE2
:100AC000DC0C18BF033202EBDC02C2F1200300FA97
:100AD00003FC20FA02F001FA03FE40EA0E0021FABC
:100AE00002F11444C1E600BF08B5074B044613B138
:100AF0000021AFF30080054B1868836A03B1984763
:100B0000204600F033F800BF000000008C0B000806
:100B10000E4B70B51E460E4C0025E41AA410A542DB
:100B200004D056F8253098470135F8E700F020F852
:100B3000084B094C1E46E41AA4100025A54204D017
:100B400056F8253098470135F8E770BD6000002061
:100B50006000002060000020640000200346024482
:100B6000934202D003F8011BFAE77047FEE700004A
:100B7000F8B500BFF8BC08BC9E467047F8B500BF8A
:100B8000F8BC08BC9E4670474300000000000020EF
:040B90000000000061
:080B9400B4F5FF7F0100000031
:100B9C000000000000000000000000000000000049
:100BAC000000000000000000000000000000000039
:100BBC00880B00080000000000000000000000008E
:100BCC000000000000000000000000000000000019
:100BDC000000000000000000000000000000000009
:100BEC0000000000000000000000000000000000F9
:080BFC0011010008ED000008E2
:0400000508000000EF
:00000001FF
